{
  "_format": "hh-sol-artifact-1",
  "contractName": "Lottery",
  "sourceName": "contracts/lottery.sol",
  "abi": [
    {
      "inputs": [
        {
          "internalType": "contract IERC20",
          "name": "_tokenaddress",
          "type": "address"
        }
      ],
      "stateMutability": "nonpayable",
      "type": "constructor"
    },
    {
      "inputs": [],
      "name": "findWinner",
      "outputs": [],
      "stateMutability": "nonpayable",
      "type": "function"
    },
    {
      "inputs": [
        {
          "internalType": "uint256",
          "name": "_amount",
          "type": "uint256"
        }
      ],
      "name": "getTicket",
      "outputs": [],
      "stateMutability": "nonpayable",
      "type": "function"
    },
    {
      "inputs": [],
      "name": "manager",
      "outputs": [
        {
          "internalType": "address",
          "name": "",
          "type": "address"
        }
      ],
      "stateMutability": "view",
      "type": "function"
    },
    {
      "inputs": [
        {
          "internalType": "uint256",
          "name": "",
          "type": "uint256"
        }
      ],
      "name": "participants",
      "outputs": [
        {
          "internalType": "address payable",
          "name": "",
          "type": "address"
        }
      ],
      "stateMutability": "view",
      "type": "function"
    },
    {
      "inputs": [],
      "name": "showBalance",
      "outputs": [
        {
          "internalType": "uint256",
          "name": "",
          "type": "uint256"
        }
      ],
      "stateMutability": "view",
      "type": "function"
    },
    {
      "inputs": [],
      "name": "token",
      "outputs": [
        {
          "internalType": "contract IERC20",
          "name": "",
          "type": "address"
        }
      ],
      "stateMutability": "view",
      "type": "function"
    },
    {
      "inputs": [],
      "name": "winner",
      "outputs": [
        {
          "internalType": "address",
          "name": "",
          "type": "address"
        }
      ],
      "stateMutability": "view",
      "type": "function"
    }
  ],
  "bytecode": "0x608060405234801561001057600080fd5b50604051610dc3380380610dc38339818101604052810190610032919061012e565b33600160006101000a81548173ffffffffffffffffffffffffffffffffffffffff021916908373ffffffffffffffffffffffffffffffffffffffff160217905550806000806101000a81548173ffffffffffffffffffffffffffffffffffffffff021916908373ffffffffffffffffffffffffffffffffffffffff1602179055505061015b565b600080fd5b600073ffffffffffffffffffffffffffffffffffffffff82169050919050565b60006100e9826100be565b9050919050565b60006100fb826100de565b9050919050565b61010b816100f0565b811461011657600080fd5b50565b60008151905061012881610102565b92915050565b600060208284031215610144576101436100b9565b5b600061015284828501610119565b91505092915050565b610c598061016a6000396000f3fe608060405234801561001057600080fd5b506004361061007d5760003560e01c806381b2d07b1161005b57806381b2d07b146100ec5780638e71decb1461010a578063dfbf53ae14610114578063fc0c546a146101325761007d565b806335c1d34914610082578063481c6a75146100b25780637dc379fa146100d0575b600080fd5b61009c600480360381019061009791906107e8565b610150565b6040516100a99190610856565b60405180910390f35b6100ba61018f565b6040516100c79190610892565b60405180910390f35b6100ea60048036038101906100e591906107e8565b6101b5565b005b6100f461030e565b60405161010191906108bc565b60405180910390f35b610112610409565b005b61011c610680565b6040516101299190610892565b60405180910390f35b61013a6106a6565b6040516101479190610936565b60405180910390f35b6002818154811061016057600080fd5b906000526020600020016000915054906101000a900473ffffffffffffffffffffffffffffffffffffffff1681565b600160009054906101000a900473ffffffffffffffffffffffffffffffffffffffff1681565b670de0b6b3a764000081146101c957600080fd5b60008054906101000a900473ffffffffffffffffffffffffffffffffffffffff1673ffffffffffffffffffffffffffffffffffffffff166323b872dd3330846040518463ffffffff1660e01b815260040161022693929190610951565b6020604051808303816000875af1158015610245573d6000803e3d6000fd5b505050506040513d601f19601f8201168201806040525081019061026991906109c0565b6102a8576040517f08c379a000000000000000000000000000000000000000000000000000000000815260040161029f90610a4a565b60405180910390fd5b6002339080600181540180825580915050600190039060005260206000200160009091909190916101000a81548173ffffffffffffffffffffffffffffffffffffffff021916908373ffffffffffffffffffffffffffffffffffffffff16021790555050565b6000600160009054906101000a900473ffffffffffffffffffffffffffffffffffffffff1673ffffffffffffffffffffffffffffffffffffffff163373ffffffffffffffffffffffffffffffffffffffff161461036a57600080fd5b60008054906101000a900473ffffffffffffffffffffffffffffffffffffffff1673ffffffffffffffffffffffffffffffffffffffff166370a08231306040518263ffffffff1660e01b81526004016103c39190610892565b602060405180830381865afa1580156103e0573d6000803e3d6000fd5b505050506040513d601f19601f820116820180604052508101906104049190610a7f565b905090565b600160009054906101000a900473ffffffffffffffffffffffffffffffffffffffff1673ffffffffffffffffffffffffffffffffffffffff163373ffffffffffffffffffffffffffffffffffffffff161461046357600080fd5b6003600280549050101561047657600080fd5b60006104806106ca565b90506000600280549050826104959190610adb565b9050600281815481106104ab576104aa610b0c565b5b9060005260206000200160009054906101000a900473ffffffffffffffffffffffffffffffffffffffff16600360006101000a81548173ffffffffffffffffffffffffffffffffffffffff021916908373ffffffffffffffffffffffffffffffffffffffff16021790555060008054906101000a900473ffffffffffffffffffffffffffffffffffffffff1673ffffffffffffffffffffffffffffffffffffffff1663a9059cbb600360009054906101000a900473ffffffffffffffffffffffffffffffffffffffff1661057d61030e565b6040518363ffffffff1660e01b815260040161059a929190610b5c565b6020604051808303816000875af11580156105b9573d6000803e3d6000fd5b505050506040513d601f19601f820116820180604052508101906105dd91906109c0565b61061c576040517f08c379a000000000000000000000000000000000000000000000000000000000815260040161061390610a4a565b60405180910390fd5b600067ffffffffffffffff81111561063757610636610b85565b5b6040519080825280602002602001820160405280156106655781602001602082028036833780820191505090505b506002908051906020019061067b929190610706565b505050565b600360009054906101000a900473ffffffffffffffffffffffffffffffffffffffff1681565b60008054906101000a900473ffffffffffffffffffffffffffffffffffffffff1681565b60004344426002805490506040516020016106e89493929190610bd5565b6040516020818303038152906040528051906020012060001c905090565b82805482825590600052602060002090810192821561077f579160200282015b8281111561077e5782518260006101000a81548173ffffffffffffffffffffffffffffffffffffffff021916908373ffffffffffffffffffffffffffffffffffffffff16021790555091602001919060010190610726565b5b50905061078c9190610790565b5090565b5b808211156107a9576000816000905550600101610791565b5090565b600080fd5b6000819050919050565b6107c5816107b2565b81146107d057600080fd5b50565b6000813590506107e2816107bc565b92915050565b6000602082840312156107fe576107fd6107ad565b5b600061080c848285016107d3565b91505092915050565b600073ffffffffffffffffffffffffffffffffffffffff82169050919050565b600061084082610815565b9050919050565b61085081610835565b82525050565b600060208201905061086b6000830184610847565b92915050565b600061087c82610815565b9050919050565b61088c81610871565b82525050565b60006020820190506108a76000830184610883565b92915050565b6108b6816107b2565b82525050565b60006020820190506108d160008301846108ad565b92915050565b6000819050919050565b60006108fc6108f76108f284610815565b6108d7565b610815565b9050919050565b600061090e826108e1565b9050919050565b600061092082610903565b9050919050565b61093081610915565b82525050565b600060208201905061094b6000830184610927565b92915050565b60006060820190506109666000830186610883565b6109736020830185610883565b61098060408301846108ad565b949350505050565b60008115159050919050565b61099d81610988565b81146109a857600080fd5b50565b6000815190506109ba81610994565b92915050565b6000602082840312156109d6576109d56107ad565b5b60006109e4848285016109ab565b91505092915050565b600082825260208201905092915050565b7f5472616e73616374696f6e20756e7375636365737366756c0000000000000000600082015250565b6000610a346018836109ed565b9150610a3f826109fe565b602082019050919050565b60006020820190508181036000830152610a6381610a27565b9050919050565b600081519050610a79816107bc565b92915050565b600060208284031215610a9557610a946107ad565b5b6000610aa384828501610a6a565b91505092915050565b7f4e487b7100000000000000000000000000000000000000000000000000000000600052601260045260246000fd5b6000610ae6826107b2565b9150610af1836107b2565b925082610b0157610b00610aac565b5b828206905092915050565b7f4e487b7100000000000000000000000000000000000000000000000000000000600052603260045260246000fd5b6000610b4682610903565b9050919050565b610b5681610b3b565b82525050565b6000604082019050610b716000830185610b4d565b610b7e60208301846108ad565b9392505050565b7f4e487b7100000000000000000000000000000000000000000000000000000000600052604160045260246000fd5b6000819050919050565b610bcf610bca826107b2565b610bb4565b82525050565b6000610be18287610bbe565b602082019150610bf18286610bbe565b602082019150610c018285610bbe565b602082019150610c118284610bbe565b6020820191508190509594505050505056fea2646970667358221220d725c1967383371c3395a231a4a4fb66ab2d03bbc9f54442cc15a39eafababf664736f6c63430008120033",
  "linkReferences": {},
  "deployedLinkReferences": {}
}